{
  "transactions": [
    {
      "hash": "0xeb0f4e6797fa089e03ed72c6b229d874e3fb27a93616f12859565148075cfdce",
      "transactionType": "CALL",
      "contractName": null,
      "contractAddress": "0xf306aef569323ef5f511a5a70140ada2ddc63ce7",
      "function": "mintNft(string)",
      "arguments": [
        "ipfs://bafybeig37ioir76s7mg5oobetncojcm3c3hxasyd4rvid4jqhy4gkaheg4/?filename=0-PUG.json"
      ],
      "transaction": {
        "from": "0x3b86a814b0fdfb11835a2333d8b72860ec8b18a4",
        "to": "0xf306aef569323ef5f511a5a70140ada2ddc63ce7",
        "gas": "0x3da80",
        "value": "0x0",
        "input": "0xda86f4a900000000000000000000000000000000000000000000000000000000000000200000000000000000000000000000000000000000000000000000000000000057697066733a2f2f62616679626569673337696f6972373673376d67356f6f6265746e636f6a636d3363336878617379643472766964346a71687934676b61686567342f3f66696c656e616d653d302d5055472e6a736f6e000000000000000000",
        "nonce": "0x15",
        "chainId": "0xaa36a7"
      },
      "additionalContracts": [],
      "isFixedGasLimit": false
    }
  ],
  "receipts": [
    {
      "status": "0x1",
      "cumulativeGasUsed": "0x15bb90a",
      "logs": [
        {
          "address": "0xf306aef569323ef5f511a5a70140ada2ddc63ce7",
          "topics": [
            "0xddf252ad1be2c89b69c2b068fc378daa952ba7f163c4a11628f55a4df523b3ef",
            "0x0000000000000000000000000000000000000000000000000000000000000000",
            "0x0000000000000000000000003b86a814b0fdfb11835a2333d8b72860ec8b18a4",
            "0x0000000000000000000000000000000000000000000000000000000000000000"
          ],
          "data": "0x",
          "blockHash": "0xbf0a79df382bb94b8ebb9f59d914a87bfc9d319eed544d87b47e3a681902b080",
          "blockNumber": "0x8421ef",
          "blockTimestamp": "0x686215e0",
          "transactionHash": "0xeb0f4e6797fa089e03ed72c6b229d874e3fb27a93616f12859565148075cfdce",
          "transactionIndex": "0xee",
          "logIndex": "0x131",
          "removed": false
        }
      ],
      "logsBloom": "0x00000000000000000001000000000000000000000000000000000000000000000000000000000000000000000100000000000000000000000000000000000000000000000000000000000008000000000000000000000000000000000000000000000000020000000000000000000800000000000000000000000010000000000000000000000000000000000000000000000000000000000000800000000000000000000000000000000000000000000000000000000000000000000000000000000402000000000400000000000000000000000000000000000000000020000000000000000000000000000000000000000000000000000000000000040000",
      "type": "0x2",
      "transactionHash": "0xeb0f4e6797fa089e03ed72c6b229d874e3fb27a93616f12859565148075cfdce",
      "transactionIndex": "0xee",
      "blockHash": "0xbf0a79df382bb94b8ebb9f59d914a87bfc9d319eed544d87b47e3a681902b080",
      "blockNumber": "0x8421ef",
      "gasUsed": "0x2ca36",
      "effectiveGasPrice": "0xa46551",
      "from": "0x3b86a814b0fdfb11835a2333d8b72860ec8b18a4",
      "to": "0xf306aef569323ef5f511a5a70140ada2ddc63ce7",
      "contractAddress": null
    }
  ],
  "libraries": [],
  "pending": [],
  "returns": {},
  "timestamp": 1751258593,
  "chain": 11155111,
  "commit": "4f1a989"
}